{
  "contractName": "NewLottery",
  "abi": [
    {
      "inputs": [],
      "stateMutability": "nonpayable",
      "type": "constructor"
    },
    {
      "inputs": [
        {
          "internalType": "uint256",
          "name": "",
          "type": "uint256"
        }
      ],
      "name": "lotteryHistory",
      "outputs": [
        {
          "internalType": "address payable",
          "name": "",
          "type": "address"
        }
      ],
      "stateMutability": "view",
      "type": "function"
    },
    {
      "inputs": [],
      "name": "lotteryId",
      "outputs": [
        {
          "internalType": "uint256",
          "name": "",
          "type": "uint256"
        }
      ],
      "stateMutability": "view",
      "type": "function"
    },
    {
      "inputs": [],
      "name": "manager",
      "outputs": [
        {
          "internalType": "address",
          "name": "",
          "type": "address"
        }
      ],
      "stateMutability": "view",
      "type": "function"
    },
    {
      "inputs": [
        {
          "internalType": "uint256",
          "name": "",
          "type": "uint256"
        }
      ],
      "name": "players",
      "outputs": [
        {
          "internalType": "address payable",
          "name": "",
          "type": "address"
        }
      ],
      "stateMutability": "view",
      "type": "function"
    },
    {
      "inputs": [
        {
          "internalType": "uint256",
          "name": "lottery",
          "type": "uint256"
        }
      ],
      "name": "getWinnerOfLottery",
      "outputs": [
        {
          "internalType": "address payable",
          "name": "",
          "type": "address"
        }
      ],
      "stateMutability": "view",
      "type": "function"
    },
    {
      "inputs": [],
      "name": "getBalance",
      "outputs": [
        {
          "internalType": "uint256",
          "name": "",
          "type": "uint256"
        }
      ],
      "stateMutability": "view",
      "type": "function"
    },
    {
      "inputs": [],
      "name": "getPlayers",
      "outputs": [
        {
          "internalType": "address payable[]",
          "name": "",
          "type": "address[]"
        }
      ],
      "stateMutability": "view",
      "type": "function"
    },
    {
      "inputs": [],
      "name": "enter",
      "outputs": [],
      "stateMutability": "payable",
      "type": "function"
    },
    {
      "inputs": [],
      "name": "getRandomNumber",
      "outputs": [
        {
          "internalType": "uint256",
          "name": "",
          "type": "uint256"
        }
      ],
      "stateMutability": "view",
      "type": "function"
    },
    {
      "inputs": [],
      "name": "selectWinner",
      "outputs": [],
      "stateMutability": "nonpayable",
      "type": "function"
    }
  ],
  "bytecode": "0x608060405234801561001057600080fd5b50336000806101000a81548173ffffffffffffffffffffffffffffffffffffffff021916908373ffffffffffffffffffffffffffffffffffffffff1602179055506001600281905550610a70806100686000396000f3fe6080604052600436106100915760003560e01c80638b5b9ccc116100595780638b5b9ccc1461017d578063dbdff2c1146101a8578063e580f47b146101d3578063e97dcb62146101fe578063f71d96cb1461020857610091565b806312065fe01461009657806333a99e04146100c1578063481c6a75146100d85780636d6fe230146101035780638528a01e14610140575b600080fd5b3480156100a257600080fd5b506100ab610245565b6040516100b891906106ae565b60405180910390f35b3480156100cd57600080fd5b506100d6610285565b005b3480156100e457600080fd5b506100ed610462565b6040516100fa919061070a565b60405180910390f35b34801561010f57600080fd5b5061012a60048036038101906101259190610756565b610486565b60405161013791906107a4565b60405180910390f35b34801561014c57600080fd5b5061016760048036038101906101629190610756565b6104b9565b60405161017491906107a4565b60405180910390f35b34801561018957600080fd5b506101926104f6565b60405161019f919061087d565b60405180910390f35b3480156101b457600080fd5b506101bd610584565b6040516101ca91906106ae565b60405180910390f35b3480156101df57600080fd5b506101e86105d8565b6040516101f591906106ae565b60405180910390f35b6102066105de565b005b34801561021457600080fd5b5061022f600480360381019061022a9190610756565b610656565b60405161023c91906107a4565b60405180910390f35b60008060009054906101000a900473ffffffffffffffffffffffffffffffffffffffff1673ffffffffffffffffffffffffffffffffffffffff1631905090565b60008054906101000a900473ffffffffffffffffffffffffffffffffffffffff1673ffffffffffffffffffffffffffffffffffffffff163373ffffffffffffffffffffffffffffffffffffffff16146102dd57600080fd5b60006001805490506102ed610584565b6102f791906108ce565b90506001818154811061030d5761030c6108ff565b5b9060005260206000200160009054906101000a900473ffffffffffffffffffffffffffffffffffffffff1673ffffffffffffffffffffffffffffffffffffffff166108fc60008054906101000a900473ffffffffffffffffffffffffffffffffffffffff1673ffffffffffffffffffffffffffffffffffffffff16319081150290604051600060405180830381858888f193505050501580156103b4573d6000803e3d6000fd5b50600181815481106103c9576103c86108ff565b5b9060005260206000200160009054906101000a900473ffffffffffffffffffffffffffffffffffffffff1660036000600254815260200190815260200160002060006101000a81548173ffffffffffffffffffffffffffffffffffffffff021916908373ffffffffffffffffffffffffffffffffffffffff1602179055506002600081548092919061045a9061095d565b919050555050565b60008054906101000a900473ffffffffffffffffffffffffffffffffffffffff1681565b60036020528060005260406000206000915054906101000a900473ffffffffffffffffffffffffffffffffffffffff1681565b60006003600083815260200190815260200160002060009054906101000a900473ffffffffffffffffffffffffffffffffffffffff169050919050565b6060600180548060200260200160405190810160405280929190818152602001828054801561057a57602002820191906000526020600020905b8160009054906101000a900473ffffffffffffffffffffffffffffffffffffffff1673ffffffffffffffffffffffffffffffffffffffff1681526020019060010190808311610530575b5050505050905090565b60008060009054906101000a900473ffffffffffffffffffffffffffffffffffffffff16426040516020016105ba929190610a0e565b6040516020818303038152906040528051906020012060001c905090565b60025481565b662386f26fc1000034116105f157600080fd5b6001339080600181540180825580915050600190039060005260206000200160009091909190916101000a81548173ffffffffffffffffffffffffffffffffffffffff021916908373ffffffffffffffffffffffffffffffffffffffff160217905550565b6001818154811061066657600080fd5b906000526020600020016000915054906101000a900473ffffffffffffffffffffffffffffffffffffffff1681565b6000819050919050565b6106a881610695565b82525050565b60006020820190506106c3600083018461069f565b92915050565b600073ffffffffffffffffffffffffffffffffffffffff82169050919050565b60006106f4826106c9565b9050919050565b610704816106e9565b82525050565b600060208201905061071f60008301846106fb565b92915050565b600080fd5b61073381610695565b811461073e57600080fd5b50565b6000813590506107508161072a565b92915050565b60006020828403121561076c5761076b610725565b5b600061077a84828501610741565b91505092915050565b600061078e826106c9565b9050919050565b61079e81610783565b82525050565b60006020820190506107b96000830184610795565b92915050565b600081519050919050565b600082825260208201905092915050565b6000819050602082019050919050565b6107f481610783565b82525050565b600061080683836107eb565b60208301905092915050565b6000602082019050919050565b600061082a826107bf565b61083481856107ca565b935061083f836107db565b8060005b8381101561087057815161085788826107fa565b975061086283610812565b925050600181019050610843565b5085935050505092915050565b60006020820190508181036000830152610897818461081f565b905092915050565b7f4e487b7100000000000000000000000000000000000000000000000000000000600052601260045260246000fd5b60006108d982610695565b91506108e483610695565b9250826108f4576108f361089f565b5b828206905092915050565b7f4e487b7100000000000000000000000000000000000000000000000000000000600052603260045260246000fd5b7f4e487b7100000000000000000000000000000000000000000000000000000000600052601160045260246000fd5b600061096882610695565b91507fffffffffffffffffffffffffffffffffffffffffffffffffffffffffffffffff820361099a5761099961092e565b5b600182019050919050565b60008160601b9050919050565b60006109bd826109a5565b9050919050565b60006109cf826109b2565b9050919050565b6109e76109e2826106e9565b6109c4565b82525050565b6000819050919050565b610a08610a0382610695565b6109ed565b82525050565b6000610a1a82856109d6565b601482019150610a2a82846109f7565b602082019150819050939250505056fea2646970667358221220329f86c4248afe5a9a602bc81295290de07eceb35a736dd7cfcb198f148b04bd64736f6c63430008110033",
  "immutableReferences": {},
  "source": "// SPDX-License-Identfier:GPL-MIT\r\n\r\npragma solidity ^0.8.17;\r\n\r\ncontract NewLottery\r\n{\r\n    address public manager;\r\n    address payable[] public players;\r\n    uint public lotteryId;\r\n    mapping (uint => address payable) public lotteryHistory;\r\n\r\n\r\n    constructor()\r\n    {\r\n        manager = msg.sender;\r\n        lotteryId = 1;\r\n    }\r\n\r\n    function getWinnerOfLottery(uint lottery) public view returns(address payable)\r\n    {\r\n        return lotteryHistory[lottery];\r\n    }\r\n\r\n    function getBalance() public view returns(uint)\r\n    {\r\n        return manager.balance;\r\n    }\r\n\r\n    function getPlayers() public view returns(address payable[] memory)\r\n    {\r\n        return players;\r\n    }\r\n\r\n    function enter() public payable\r\n    {\r\n        require(msg.value > 0.01 ether);\r\n\r\n        players.push(payable(msg.sender));\r\n    }\r\n\r\n    function getRandomNumber() public view returns(uint)\r\n    {\r\n        return uint(keccak256(abi.encodePacked(manager, block.timestamp)));\r\n    }\r\n\r\n    function selectWinner() public onlyManager\r\n    {\r\n        uint index = getRandomNumber() % players.length;\r\n        players[index].transfer(manager.balance);\r\n\r\n        lotteryHistory[lotteryId] = players[index];\r\n        lotteryId++;\r\n    }\r\n\r\n    modifier onlyManager()\r\n    {\r\n        require(msg.sender == manager);\r\n        _;\r\n    }\r\n}",
  "sourcePath": "C:\\Users\\HP\\OneDrive\\Desktop\\Solidity\\1_NewLottery_Project.sol\\contracts\\program.sol",
  "compiler": {
    "name": "solc",
    "version": "0.8.17+commit.8df45f5f.Emscripten.clang"
  },
  "schemaVersion": "3.4.11",
  "updatedAt": "2022-12-05T00:35:11.258Z",
  "devdoc": {
    "kind": "dev",
    "methods": {},
    "version": 1
  },
  "userdoc": {
    "kind": "user",
    "methods": {},
    "version": 1
  }
}